S01D00004C41424F5241544F52494F325F4449474954414C322E7372656308
S11300000C9434000C9451000C9451000C94510045
S11300100C9451000C9451000C9451000C94510018
S11300200C9451000C9451000C9451000C94510008
S11300300C9451000C9451000C9451000C945100F8
S11300400C9451000C9451000C9451000C945100E8
S11300500C9451000C9451000C9451000C945100D8
S11300600C9451000C94510011241FBECFEFD8E022
S1130070DEBFCDBF11E0A0E0B1E0EEECFAE002C0DB
S113008005900D92A433B107D9F721E0A4E3B1E0C0
S113009001C01D92AA34B207E1F70E944A010C94F0
S11300A065050C94000080E480937C0087E88093CD
S11300B07A000895ECE7F0E09081907F8F70892BAF
S11300C08083EAE7F0E080818064808380917A0015
S11300D086FDFCCF8091780090917900089580FF8F
S11300E004C09BB190629BB903C09BB19F7D9BB937
S11300F081FF04C09BB190649BB903C09BB19F7BFB
S11301009BB982FF04C09BB190689BB903C09BB1AB
S11301109F779BB983FF04C095B1916095B903C0E3
S113012095B19E7F95B984FF04C095B1926095B94D
S113013003C095B19D7F95B985FF04C095B19460C6
S113014095B903C095B19B7F95B986FF04C095B15D
S1130150986095B903C095B1977F95B9882324F425
S113016085B1806185B9089585B18F7E85B908957B
S11301709BB19B7F9BB99BB1977F9BB90E946F00FA
S11301808BB180618BB985E38A95F1F700008BB15F
S11301908F7E8BB98FE19EE40197F1F700C00000D8
S11301A008958AB18C6F8AB984B18F6184B91BB800
S11301B015B82FEF89EF90E0215080409040E1F78F
S11301C000C0000080E30E94B8008FE19EE4019724
S11301D0F1F700C0000080E30E94B8008FE19EE4C4
S11301E00197F1F700C0000080E30E94B8008FE19E
S11301F09EE40197F1F700C0000088E30E94B80074
S11302008FE19EE40197F1F700C000008CE00E94AA
S1130210B8008FE19EE40197F1F700C0000081E08F
S11302200E94B8008FE19EE40197F1F700C000003E
S113023086E00E94B80008959BB194609BB99BB17D
S1130240977F9BB90E946F008BB180618BB985E366
S11302508A95F1F700008BB18F7E8BB98FE19EE414
S11302600197F1F700C000000895CF93DF93EC01EC
S113027003C00E941C01219688818111FACFDF916D
S1130280CF910895613011F4815801C081540E94C6
S1130290B80008950E94D1000E94530060E875E2FE
S11302A080E090E00E94080280E00E945A009C01D5
S11302B0A8E8B3E10E946C022FEF33E040E050E085
S11302C00E944A0269017A01A901569547955695FB
S11302D04795569547959A01A5ECB0E20E946C02A9
S11302E0EC01D295C295CF70CD27DF70CD2728EED3
S11302F033E0C29FC001C39F900DD29F900D112483
S11303009601281B390BADECBCEC0E946C027C01FD
S1130310F694E794F694E794F694E79461E081E028
S11303200E944201FF24DD27FF92EF92DF93CF93D7
S113033080E091E09F938F9306E311E01F930F9366
S11303400E947B02C8010E94350183E00E945A008A
S1130350D82EC92E62E081E00E94420180913501CD
S11303608F93809134018F93CF92DF928CE091E050
S11303709F938F931F930F930E947B02C8010E9447
S11303803501809135018F93809134018F93CF9201
S1130390DF92FF92EF92DF93CF938AE191E09F93F4
S11303A08F931F930F930E947B02C8010E94360211
S11303B00E9443022DB73EB7245E3F4F0FB6F89418
S11303C03EBF0FBE2DBF8823C9F00E9447028B3267
S11303D051F420913401309135012F5F3F4F309318
S11303E03501209334018D3249F480913401909188
S11303F03501019790933501809334013FEF89E6ED
S113040098E1315080409040E1F700C000004CCFAB
S1130410DC01CB01880F991FAA1FBB1F880F991FEE
S1130420AA1FBB1F9C01AD01220F331F441F551F80
S1130430220F331F441F551F60E074E284EF90E0E5
S11304400E944A02215031093093C5002093C40010
S113045088E18093C10086E08093C2000895909162
S1130460C00095FFFCCF8093C6000895CF93DF931F
S1130470EC0103C021960E942F0288818111FACFDA
S1130480DF91CF9108958091C00080780895809184
S1130490C6000895A1E21A2EAA1BBB1BFD010DC0C4
S11304A0AA1FBB1FEE1FFF1FA217B307E407F50720
S11304B020F0A21BB30BE40BF50B661F771F881FFC
S11304C0991F1A9469F760957095809590959B0192
S11304D0AC01BD01CF010895A29FB001B39FC0013B
S11304E0A39F700D811D1124911DB29F700D811D5C
S11304F01124911D0895AEE0B0E0E1E8F2E00C941F
S11305003C050D891E8986E08C831A8309838FEF4D
S11305109FE79E838D83AE01475E5F4F6F89788D21
S1130520CE0101960E949D02EF81F885E00FF11F34
S113053010822E96E4E00C945805ABE0B0E0E3EAB8
S1130540F2E00C942E056C017B018A01FC011782F8
S11305501682838181FFCCC1CE0101963C01F60154
S11305609381F70193FD859193FF81917F01882306
S113057009F4BAC1853239F493FD859193FF8191D1
S11305807F01853229F4B60190E00E949404E7CFFC
S1130590912C212C312CFFE1F315D8F08B3279F01A
S11305A038F4803279F08332A1F4232D20611DC008
S11305B08D3261F0803369F4232D216016C0832DC0
S11305C08260382EE32DE4603E2E2AC0F32DF860BD
S11305D01DC037FC2DC020ED280F2A3040F08E328C
S11305E0B9F436FC81C1232D2064322E19C036FEA5
S11305F006C08AE0989E200D1124922E11C0EAE0D4
S11306002E9E200D1124222EF32DF0623F2E08C0C1
S11306108C3621F4832D8068382E02C0883641F44C
S1130620F70193FD859193FF81917F018111B3CFF0
S1130630982F9F7D9554933028F40C5F1F4F9FE3B0
S113064099830DC0833631F0833771F0833509F017
S113065059C021C0F801808189830E5F1F4F88240F
S11306608394912C530113C02801F2E04F0E511CC6
S1130670F801A080B18036FE03C0692D70E002C08D
S11306806FEF7FEFC5010E9489044C018201F32DB5
S1130690FF773F2E16C0280122E0420E511CF801BC
S11306A0A080B18036FE03C0692D70E002C06FEFF8
S11306B07FEFC5010E947E044C01F32DF0683F2EAC
S11306C0820133FC1BC0822D90E088169906B0F499
S11306D0B60180E290E00E9494042A94F4CFF501DC
S11306E037FC859137FE81915F01B60190E00E944D
S11306F0940421102A9421E0821A9108811491040F
S113070071F7E8C0843611F0893641F5F80137FEF7
S113071007C060817181828193810C5F1F4F08C083
S113072060817181072E000C880B990B0E5F1F4F9F
S1130730F32DFF763F2E97FF09C090958095709515
S113074061957F4F8F4F9F4FF0683F2E2AE030E036
S1130750A3010E94D004882E861845C0853731F441
S1130760232D2F7EB22E2AE030E025C0932D997FD1
S1130770B92E8F36C1F018F4883579F0B5C08037BA
S113078019F0883721F0B0C0E92FE061BE2EB4FE25
S11307900DC0FB2DF460BF2E09C034FE0AC0292F02
S11307A02660B22E06C028E030E005C020E130E02B
S11307B002C020E132E0F801B7FE07C06081718118
S11307C0828193810C5F1F4F06C06081718180E03C
S11307D090E00E5F1F4FA3010E94D004882E86185C
S11307E0FB2DFF773F2E36FE0DC0232D2E7FA22E2C
S11307F0891458F434FE0BC032FC09C0832D8E7E5C
S1130800A82E05C0B82CA32C03C0B82C01C0B92C49
S1130810A4FE0FC0FE01E80DF11D8081803321F498
S11308209A2D997EA92E09C0A2FE06C0B394B39452
S113083004C08A2D867809F0B394A3FC11C0A0FEED
S113084006C0B21488F4280C922C9B180EC0B21463
S113085060F4B60180E290E00E949404B394F7CF70
S1130860B21418F42B1802C0982C212CA4FE10C02A
S1130870B60180E390E00E949404A2FE17C0A1FC9C
S113088003C088E790E002C088E590E0B6010CC0A0
S11308908A2D867859F0A1FE02C08BE201C080E265
S11308A0A7FC8DE2B60190E00E949404891438F408
S11308B0B60180E390E00E9494049A94F7CF8A945E
S11308C0F301E80DF11D8081B60190E00E949404CB
S11308D08110F5CF222009F442CEB60180E290E0E7
S11308E00E9494042A94F6CFF6018681978102C06F
S11308F08FEF9FEF2B96E2E10C944A05FC010590E3
S1130900615070400110D8F7809590958E0F9F1F0D
S11309100895FC016150704001900110D8F7809552
S113092090958E0F9F1F08950F931F93CF93DF937E
S1130930FB01238121FD03C08FEF9FEF2CC022FF19
S113094016C046815781248135814217530744F4E8
S1130950A081B1819D012F5F3F4F318320838C9310
S1130960268137812F5F3F4F3783268314C08B0145
S1130970EC01FB010084F185E02D0995892BE1F65A
S1130980D80116968D919C911797019617969C9372
S11309908E931697CE01DF91CF911F910F910895F9
S11309A0FA01AA27283051F1203181F1E8946F939C
S11309B06E7F6E5F7F4F8F4F9F4FAF4FB1E03ED042
S11309C0B4E03CD0670F781F891F9A1FA11D680FE0
S11309D0791F8A1F911DA11D6A0F711D811D911D13
S11309E0A11D20D009F468943F912AE0269F112488
S11309F03019305D3193DEF6CF010895462F4770EC
S1130A00405D4193B3E00FD0C9F7F6CF462F4F7046
S1130A10405D4A3318F0495D31FD4052419302D0A4
S1130A20A9F7EACFB4E0A69597958795779567954A
S1130A30BA95C9F700976105710508959B01AC014A
S1130A400A2E06945795479537952795BA95C9F771
S1130A50620F731F841F951FA01D08952F923F924C
S1130A604F925F926F927F928F929F92AF92BF92BA
S1130A70CF92DF92EF92FF920F931F93CF93DF9366
S1130A80CDB7DEB7CA1BDB0B0FB6F894DEBF0FBEC3
S1130A90CDBF09942A88398848885F846E847D8410
S1130AA08C849B84AA84B984C884DF80EE80FD8012
S1130AB00C811B81AA81B981CE0FD11D0FB6F89488
S1110AC0DEBF0FBECDBFED010895F894FFCF49
S1130ACE53313A25642E25303264560053323A257A
S1130ADE34642053333A2533640053313D25642E58
S1130AEE25303264562053323D25642053333D2540
S1070AFE640D0A0075
S9030000FC
